{
  "_format": "hh-sol-artifact-1",
  "contractName": "MessagePortal",
  "sourceName": "contracts/MessagePortal.sol",
  "abi": [
    {
      "inputs": [],
      "stateMutability": "nonpayable",
      "type": "constructor"
    },
    {
      "anonymous": false,
      "inputs": [
        {
          "indexed": true,
          "internalType": "address",
          "name": "from",
          "type": "address"
        },
        {
          "indexed": false,
          "internalType": "uint256",
          "name": "timestamp",
          "type": "uint256"
        },
        {
          "indexed": false,
          "internalType": "string",
          "name": "message",
          "type": "string"
        }
      ],
      "name": "NewMessage",
      "type": "event"
    },
    {
      "inputs": [],
      "name": "getAllMessages",
      "outputs": [
        {
          "components": [
            {
              "internalType": "string",
              "name": "text",
              "type": "string"
            },
            {
              "internalType": "address",
              "name": "from",
              "type": "address"
            },
            {
              "internalType": "uint256",
              "name": "datetime",
              "type": "uint256"
            }
          ],
          "internalType": "struct MessagePortal.Message[]",
          "name": "",
          "type": "tuple[]"
        }
      ],
      "stateMutability": "view",
      "type": "function"
    },
    {
      "inputs": [],
      "name": "getTotalMessages",
      "outputs": [
        {
          "internalType": "uint256",
          "name": "",
          "type": "uint256"
        }
      ],
      "stateMutability": "view",
      "type": "function"
    },
    {
      "inputs": [
        {
          "internalType": "string",
          "name": "_newMessage",
          "type": "string"
        }
      ],
      "name": "sendMessage",
      "outputs": [],
      "stateMutability": "nonpayable",
      "type": "function"
    }
  ],
  "bytecode": "0x60806040523480156200001157600080fd5b50620000586040518060400160405280600581526020017f59617979790000000000000000000000000000000000000000000000000000008152506200005e60201b60201c565b62000258565b620000fe8160405160240162000075919062000205565b6040516020818303038152906040527f41304fac000000000000000000000000000000000000000000000000000000007bffffffffffffffffffffffffffffffffffffffffffffffffffffffff19166020820180517bffffffffffffffffffffffffffffffffffffffffffffffffffffffff83818316178352505050506200010160201b60201c565b50565b6200012781620001226200012a60201b620004be176200014b60201b60201c565b60201c565b50565b60006a636f6e736f6c652e6c6f679050600080835160208501845afa505050565b6200015f60201b6200077417819050919050565b6200016962000229565b565b600081519050919050565b600082825260208201905092915050565b60005b83811015620001a75780820151818401526020810190506200018a565b60008484015250505050565b6000601f19601f8301169050919050565b6000620001d1826200016b565b620001dd818562000176565b9350620001ef81856020860162000187565b620001fa81620001b3565b840191505092915050565b60006020820190508181036000830152620002218184620001c4565b905092915050565b7f4e487b7100000000000000000000000000000000000000000000000000000000600052605160045260246000fd5b61104780620002686000396000f3fe608060405234801561001057600080fd5b50600436106100415760003560e01c8063147e910814610046578063469c81101461006457806353f5e38014610080575b600080fd5b61004e61009e565b60405161005b9190610797565b60405180910390f35b61007e6004803603810190610079919061090c565b6100e9565b005b61008861036d565b6040516100959190610b36565b60405180910390f35b60006100e16040518060400160405280601a81526020017f5765206861766520256420746f74616c206d65737361676573210000000000008152506000546104df565b600054905090565b6101286040518060400160405280601681526020017f2573206861732073656e742061206d65737361676521000000000000000000008152503361057b565b600160405180606001604052808381526020013373ffffffffffffffffffffffffffffffffffffffff16815260200142815250908060018154018082558091505060019003906000526020600020906003020160009091909190915060008201518160000190816101999190610d64565b5060208201518160010160006101000a81548173ffffffffffffffffffffffffffffffffffffffff021916908373ffffffffffffffffffffffffffffffffffffffff16021790555060408201518160020155505060016000808282546101ff9190610e65565b925050819055506001600260003373ffffffffffffffffffffffffffffffffffffffff1673ffffffffffffffffffffffffffffffffffffffff16815260200190815260200160002060008282546102569190610e65565b925050819055506102dc6040518060400160405280601f81526020017f4e756d626572206f66206d65737361676573206f66202561202573203e3e200081525033600260003373ffffffffffffffffffffffffffffffffffffffff1673ffffffffffffffffffffffffffffffffffffffff16815260200190815260200160002054610617565b3373ffffffffffffffffffffffffffffffffffffffff167f0ff94fec3112de81726d79117e091c7c9d47da8a38c73e8cec7ee350a61898a64283604051610324929190610ee3565b60405180910390a261036a6040518060400160405280601381526020017f416c6c4d657373616765732075706461746564000000000000000000000000008152506106b6565b50565b60606001805480602002602001604051908101604052809291908181526020016000905b828210156104b557838290600052602060002090600302016040518060600160405290816000820180546103c490610b87565b80601f01602080910402602001604051908101604052809291908181526020018280546103f090610b87565b801561043d5780601f106104125761010080835404028352916020019161043d565b820191906000526020600020905b81548152906001019060200180831161042057829003601f168201915b505050505081526020016001820160009054906101000a900473ffffffffffffffffffffffffffffffffffffffff1673ffffffffffffffffffffffffffffffffffffffff1673ffffffffffffffffffffffffffffffffffffffff16815260200160028201548152505081526020019060010190610391565b50505050905090565b60006a636f6e736f6c652e6c6f679050600080835160208501845afa505050565b61057782826040516024016104f5929190610f13565b6040516020818303038152906040527fb60e72cc000000000000000000000000000000000000000000000000000000007bffffffffffffffffffffffffffffffffffffffffffffffffffffffff19166020820180517bffffffffffffffffffffffffffffffffffffffffffffffffffffffff838183161783525050505061074f565b5050565b6106138282604051602401610591929190610f52565b6040516020818303038152906040527f319af333000000000000000000000000000000000000000000000000000000007bffffffffffffffffffffffffffffffffffffffffffffffffffffffff19166020820180517bffffffffffffffffffffffffffffffffffffffffffffffffffffffff838183161783525050505061074f565b5050565b6106b183838360405160240161062f93929190610f82565b6040516020818303038152906040527f0d26b925000000000000000000000000000000000000000000000000000000007bffffffffffffffffffffffffffffffffffffffffffffffffffffffff19166020820180517bffffffffffffffffffffffffffffffffffffffffffffffffffffffff838183161783525050505061074f565b505050565b61074c816040516024016106ca9190610fc0565b6040516020818303038152906040527f41304fac000000000000000000000000000000000000000000000000000000007bffffffffffffffffffffffffffffffffffffffffffffffffffffffff19166020820180517bffffffffffffffffffffffffffffffffffffffffffffffffffffffff838183161783525050505061074f565b50565b6107668161075e6104be610769565b63ffffffff16565b50565b610774819050919050565b61077c610fe2565b565b6000819050919050565b6107918161077e565b82525050565b60006020820190506107ac6000830184610788565b92915050565b6000604051905090565b600080fd5b600080fd5b600080fd5b600080fd5b6000601f19601f8301169050919050565b7f4e487b7100000000000000000000000000000000000000000000000000000000600052604160045260246000fd5b610819826107d0565b810181811067ffffffffffffffff82111715610838576108376107e1565b5b80604052505050565b600061084b6107b2565b90506108578282610810565b919050565b600067ffffffffffffffff821115610877576108766107e1565b5b610880826107d0565b9050602081019050919050565b82818337600083830152505050565b60006108af6108aa8461085c565b610841565b9050828152602081018484840111156108cb576108ca6107cb565b5b6108d684828561088d565b509392505050565b600082601f8301126108f3576108f26107c6565b5b813561090384826020860161089c565b91505092915050565b600060208284031215610922576109216107bc565b5b600082013567ffffffffffffffff8111156109405761093f6107c1565b5b61094c848285016108de565b91505092915050565b600081519050919050565b600082825260208201905092915050565b6000819050602082019050919050565b600081519050919050565b600082825260208201905092915050565b60005b838110156109bb5780820151818401526020810190506109a0565b60008484015250505050565b60006109d282610981565b6109dc818561098c565b93506109ec81856020860161099d565b6109f5816107d0565b840191505092915050565b600073ffffffffffffffffffffffffffffffffffffffff82169050919050565b6000610a2b82610a00565b9050919050565b610a3b81610a20565b82525050565b610a4a8161077e565b82525050565b60006060830160008301518482036000860152610a6d82826109c7565b9150506020830151610a826020860182610a32565b506040830151610a956040860182610a41565b508091505092915050565b6000610aac8383610a50565b905092915050565b6000602082019050919050565b6000610acc82610955565b610ad68185610960565b935083602082028501610ae885610971565b8060005b85811015610b245784840389528151610b058582610aa0565b9450610b1083610ab4565b925060208a01995050600181019050610aec565b50829750879550505050505092915050565b60006020820190508181036000830152610b508184610ac1565b905092915050565b7f4e487b7100000000000000000000000000000000000000000000000000000000600052602260045260246000fd5b60006002820490506001821680610b9f57607f821691505b602082108103610bb257610bb1610b58565b5b50919050565b60008190508160005260206000209050919050565b60006020601f8301049050919050565b600082821b905092915050565b600060088302610c1a7fffffffffffffffffffffffffffffffffffffffffffffffffffffffffffffffff82610bdd565b610c248683610bdd565b95508019841693508086168417925050509392505050565b6000819050919050565b6000610c61610c5c610c578461077e565b610c3c565b61077e565b9050919050565b6000819050919050565b610c7b83610c46565b610c8f610c8782610c68565b848454610bea565b825550505050565b600090565b610ca4610c97565b610caf818484610c72565b505050565b5b81811015610cd357610cc8600082610c9c565b600181019050610cb5565b5050565b601f821115610d1857610ce981610bb8565b610cf284610bcd565b81016020851015610d01578190505b610d15610d0d85610bcd565b830182610cb4565b50505b505050565b600082821c905092915050565b6000610d3b60001984600802610d1d565b1980831691505092915050565b6000610d548383610d2a565b9150826002028217905092915050565b610d6d82610981565b67ffffffffffffffff811115610d8657610d856107e1565b5b610d908254610b87565b610d9b828285610cd7565b600060209050601f831160018114610dce5760008415610dbc578287015190505b610dc68582610d48565b865550610e2e565b601f198416610ddc86610bb8565b60005b82811015610e0457848901518255600182019150602085019450602081019050610ddf565b86831015610e215784890151610e1d601f891682610d2a565b8355505b6001600288020188555050505b505050505050565b7f4e487b7100000000000000000000000000000000000000000000000000000000600052601160045260246000fd5b6000610e708261077e565b9150610e7b8361077e565b9250828201905080821115610e9357610e92610e36565b5b92915050565b600082825260208201905092915050565b6000610eb582610981565b610ebf8185610e99565b9350610ecf81856020860161099d565b610ed8816107d0565b840191505092915050565b6000604082019050610ef86000830185610788565b8181036020830152610f0a8184610eaa565b90509392505050565b60006040820190508181036000830152610f2d8185610eaa565b9050610f3c6020830184610788565b9392505050565b610f4c81610a20565b82525050565b60006040820190508181036000830152610f6c8185610eaa565b9050610f7b6020830184610f43565b9392505050565b60006060820190508181036000830152610f9c8186610eaa565b9050610fab6020830185610f43565b610fb86040830184610788565b949350505050565b60006020820190508181036000830152610fda8184610eaa565b905092915050565b7f4e487b7100000000000000000000000000000000000000000000000000000000600052605160045260246000fdfea264697066735822122089e4a7331389d5b59ea1fc32a6c9517ec83d52e5924ce2ad096f89b93dcc869f64736f6c63430008130033",
  "linkReferences": {},
  "deployedLinkReferences": {}
}